{
  "address": "0x21041fDDa724BE20513425dA6b8B26a5B998737a",
  "abi": [
    {
      "inputs": [
        {
          "internalType": "contract MyERC20",
          "name": "_paymentToken",
          "type": "address"
        },
        {
          "internalType": "string",
          "name": "name",
          "type": "string"
        },
        {
          "internalType": "string",
          "name": "symbol",
          "type": "string"
        }
      ],
      "stateMutability": "nonpayable",
      "type": "constructor"
    },
    {
      "anonymous": false,
      "inputs": [
        {
          "indexed": true,
          "internalType": "address",
          "name": "owner",
          "type": "address"
        },
        {
          "indexed": true,
          "internalType": "address",
          "name": "approved",
          "type": "address"
        },
        {
          "indexed": true,
          "internalType": "uint256",
          "name": "tokenId",
          "type": "uint256"
        }
      ],
      "name": "Approval",
      "type": "event"
    },
    {
      "anonymous": false,
      "inputs": [
        {
          "indexed": true,
          "internalType": "address",
          "name": "owner",
          "type": "address"
        },
        {
          "indexed": true,
          "internalType": "address",
          "name": "operator",
          "type": "address"
        },
        {
          "indexed": false,
          "internalType": "bool",
          "name": "approved",
          "type": "bool"
        }
      ],
      "name": "ApprovalForAll",
      "type": "event"
    },
    {
      "anonymous": false,
      "inputs": [
        {
          "indexed": false,
          "internalType": "uint256",
          "name": "_fromTokenId",
          "type": "uint256"
        },
        {
          "indexed": false,
          "internalType": "uint256",
          "name": "_toTokenId",
          "type": "uint256"
        }
      ],
      "name": "BatchMetadataUpdate",
      "type": "event"
    },
    {
      "anonymous": false,
      "inputs": [
        {
          "indexed": false,
          "internalType": "uint256",
          "name": "_tokenId",
          "type": "uint256"
        }
      ],
      "name": "MetadataUpdate",
      "type": "event"
    },
    {
      "anonymous": false,
      "inputs": [
        {
          "indexed": true,
          "internalType": "address",
          "name": "to",
          "type": "address"
        },
        {
          "components": [
            {
              "internalType": "uint256",
              "name": "tokenId",
              "type": "uint256"
            },
            {
              "internalType": "address",
              "name": "seller",
              "type": "address"
            },
            {
              "internalType": "uint256",
              "name": "price",
              "type": "uint256"
            },
            {
              "internalType": "string",
              "name": "uri",
              "type": "string"
            },
            {
              "internalType": "bool",
              "name": "display",
              "type": "bool"
            }
          ],
          "indexed": false,
          "internalType": "struct MyERC721.SaleInfo",
          "name": "saleInfo",
          "type": "tuple"
        }
      ],
      "name": "Mint",
      "type": "event"
    },
    {
      "anonymous": false,
      "inputs": [
        {
          "indexed": true,
          "internalType": "address",
          "name": "seller",
          "type": "address"
        },
        {
          "indexed": true,
          "internalType": "address",
          "name": "buyer",
          "type": "address"
        },
        {
          "components": [
            {
              "internalType": "uint256",
              "name": "tokenId",
              "type": "uint256"
            },
            {
              "internalType": "address",
              "name": "seller",
              "type": "address"
            },
            {
              "internalType": "uint256",
              "name": "price",
              "type": "uint256"
            },
            {
              "internalType": "string",
              "name": "uri",
              "type": "string"
            },
            {
              "internalType": "bool",
              "name": "display",
              "type": "bool"
            }
          ],
          "indexed": false,
          "internalType": "struct MyERC721.SaleInfo",
          "name": "saleInfo",
          "type": "tuple"
        },
        {
          "indexed": false,
          "internalType": "uint256",
          "name": "price",
          "type": "uint256"
        }
      ],
      "name": "NFTSold",
      "type": "event"
    },
    {
      "anonymous": false,
      "inputs": [
        {
          "indexed": true,
          "internalType": "address",
          "name": "previousOwner",
          "type": "address"
        },
        {
          "indexed": true,
          "internalType": "address",
          "name": "newOwner",
          "type": "address"
        }
      ],
      "name": "OwnershipTransferred",
      "type": "event"
    },
    {
      "anonymous": false,
      "inputs": [
        {
          "indexed": true,
          "internalType": "address",
          "name": "from",
          "type": "address"
        },
        {
          "indexed": true,
          "internalType": "address",
          "name": "to",
          "type": "address"
        },
        {
          "indexed": true,
          "internalType": "uint256",
          "name": "tokenId",
          "type": "uint256"
        }
      ],
      "name": "Transfer",
      "type": "event"
    },
    {
      "inputs": [
        {
          "internalType": "address",
          "name": "to",
          "type": "address"
        },
        {
          "internalType": "uint256",
          "name": "tokenId",
          "type": "uint256"
        }
      ],
      "name": "approve",
      "outputs": [],
      "stateMutability": "nonpayable",
      "type": "function"
    },
    {
      "inputs": [
        {
          "internalType": "address",
          "name": "owner",
          "type": "address"
        }
      ],
      "name": "balanceOf",
      "outputs": [
        {
          "internalType": "uint256",
          "name": "",
          "type": "uint256"
        }
      ],
      "stateMutability": "view",
      "type": "function"
    },
    {
      "inputs": [
        {
          "internalType": "address[]",
          "name": "to",
          "type": "address[]"
        },
        {
          "internalType": "string[]",
          "name": "uris",
          "type": "string[]"
        }
      ],
      "name": "batchMint",
      "outputs": [],
      "stateMutability": "nonpayable",
      "type": "function"
    },
    {
      "inputs": [
        {
          "internalType": "uint256",
          "name": "tokenId",
          "type": "uint256"
        }
      ],
      "name": "buyNFT",
      "outputs": [],
      "stateMutability": "nonpayable",
      "type": "function"
    },
    {
      "inputs": [],
      "name": "getAllTokensForDisplay",
      "outputs": [
        {
          "components": [
            {
              "internalType": "uint256",
              "name": "tokenId",
              "type": "uint256"
            },
            {
              "internalType": "address",
              "name": "seller",
              "type": "address"
            },
            {
              "internalType": "uint256",
              "name": "price",
              "type": "uint256"
            },
            {
              "internalType": "string",
              "name": "uri",
              "type": "string"
            },
            {
              "internalType": "bool",
              "name": "display",
              "type": "bool"
            }
          ],
          "internalType": "struct MyERC721.SaleInfo[]",
          "name": "",
          "type": "tuple[]"
        }
      ],
      "stateMutability": "view",
      "type": "function"
    },
    {
      "inputs": [
        {
          "internalType": "uint256",
          "name": "tokenId",
          "type": "uint256"
        }
      ],
      "name": "getApproved",
      "outputs": [
        {
          "internalType": "address",
          "name": "",
          "type": "address"
        }
      ],
      "stateMutability": "view",
      "type": "function"
    },
    {
      "inputs": [
        {
          "internalType": "address",
          "name": "owner",
          "type": "address"
        }
      ],
      "name": "getTokensOwnedBy",
      "outputs": [
        {
          "components": [
            {
              "internalType": "uint256",
              "name": "tokenId",
              "type": "uint256"
            },
            {
              "internalType": "address",
              "name": "seller",
              "type": "address"
            },
            {
              "internalType": "uint256",
              "name": "price",
              "type": "uint256"
            },
            {
              "internalType": "string",
              "name": "uri",
              "type": "string"
            },
            {
              "internalType": "bool",
              "name": "display",
              "type": "bool"
            }
          ],
          "internalType": "struct MyERC721.SaleInfo[]",
          "name": "",
          "type": "tuple[]"
        }
      ],
      "stateMutability": "view",
      "type": "function"
    },
    {
      "inputs": [
        {
          "internalType": "address",
          "name": "owner",
          "type": "address"
        },
        {
          "internalType": "address",
          "name": "operator",
          "type": "address"
        }
      ],
      "name": "isApprovedForAll",
      "outputs": [
        {
          "internalType": "bool",
          "name": "",
          "type": "bool"
        }
      ],
      "stateMutability": "view",
      "type": "function"
    },
    {
      "inputs": [
        {
          "internalType": "uint256",
          "name": "tokenId",
          "type": "uint256"
        }
      ],
      "name": "listNFTForDisplay",
      "outputs": [],
      "stateMutability": "nonpayable",
      "type": "function"
    },
    {
      "inputs": [
        {
          "internalType": "uint256",
          "name": "tokenId",
          "type": "uint256"
        },
        {
          "internalType": "uint256",
          "name": "price",
          "type": "uint256"
        }
      ],
      "name": "listNFTForSale",
      "outputs": [],
      "stateMutability": "nonpayable",
      "type": "function"
    },
    {
      "inputs": [],
      "name": "name",
      "outputs": [
        {
          "internalType": "string",
          "name": "",
          "type": "string"
        }
      ],
      "stateMutability": "view",
      "type": "function"
    },
    {
      "inputs": [],
      "name": "owner",
      "outputs": [
        {
          "internalType": "address",
          "name": "",
          "type": "address"
        }
      ],
      "stateMutability": "view",
      "type": "function"
    },
    {
      "inputs": [
        {
          "internalType": "uint256",
          "name": "tokenId",
          "type": "uint256"
        }
      ],
      "name": "ownerOf",
      "outputs": [
        {
          "internalType": "address",
          "name": "",
          "type": "address"
        }
      ],
      "stateMutability": "view",
      "type": "function"
    },
    {
      "inputs": [],
      "name": "paymentToken",
      "outputs": [
        {
          "internalType": "contract MyERC20",
          "name": "",
          "type": "address"
        }
      ],
      "stateMutability": "view",
      "type": "function"
    },
    {
      "inputs": [
        {
          "internalType": "uint256",
          "name": "tokenId",
          "type": "uint256"
        }
      ],
      "name": "removeNFTFromDisplay",
      "outputs": [],
      "stateMutability": "nonpayable",
      "type": "function"
    },
    {
      "inputs": [],
      "name": "renounceOwnership",
      "outputs": [],
      "stateMutability": "nonpayable",
      "type": "function"
    },
    {
      "inputs": [
        {
          "internalType": "address",
          "name": "to",
          "type": "address"
        },
        {
          "internalType": "string",
          "name": "uri",
          "type": "string"
        }
      ],
      "name": "safeMint",
      "outputs": [],
      "stateMutability": "nonpayable",
      "type": "function"
    },
    {
      "inputs": [
        {
          "internalType": "address",
          "name": "from",
          "type": "address"
        },
        {
          "internalType": "address",
          "name": "to",
          "type": "address"
        },
        {
          "internalType": "uint256",
          "name": "tokenId",
          "type": "uint256"
        }
      ],
      "name": "safeTransferFrom",
      "outputs": [],
      "stateMutability": "nonpayable",
      "type": "function"
    },
    {
      "inputs": [
        {
          "internalType": "address",
          "name": "from",
          "type": "address"
        },
        {
          "internalType": "address",
          "name": "to",
          "type": "address"
        },
        {
          "internalType": "uint256",
          "name": "tokenId",
          "type": "uint256"
        },
        {
          "internalType": "bytes",
          "name": "data",
          "type": "bytes"
        }
      ],
      "name": "safeTransferFrom",
      "outputs": [],
      "stateMutability": "nonpayable",
      "type": "function"
    },
    {
      "inputs": [
        {
          "internalType": "uint256",
          "name": "",
          "type": "uint256"
        }
      ],
      "name": "saleInfo",
      "outputs": [
        {
          "internalType": "uint256",
          "name": "tokenId",
          "type": "uint256"
        },
        {
          "internalType": "address",
          "name": "seller",
          "type": "address"
        },
        {
          "internalType": "uint256",
          "name": "price",
          "type": "uint256"
        },
        {
          "internalType": "string",
          "name": "uri",
          "type": "string"
        },
        {
          "internalType": "bool",
          "name": "display",
          "type": "bool"
        }
      ],
      "stateMutability": "view",
      "type": "function"
    },
    {
      "inputs": [
        {
          "internalType": "address",
          "name": "operator",
          "type": "address"
        },
        {
          "internalType": "bool",
          "name": "approved",
          "type": "bool"
        }
      ],
      "name": "setApprovalForAll",
      "outputs": [],
      "stateMutability": "nonpayable",
      "type": "function"
    },
    {
      "inputs": [
        {
          "internalType": "bytes4",
          "name": "interfaceId",
          "type": "bytes4"
        }
      ],
      "name": "supportsInterface",
      "outputs": [
        {
          "internalType": "bool",
          "name": "",
          "type": "bool"
        }
      ],
      "stateMutability": "view",
      "type": "function"
    },
    {
      "inputs": [],
      "name": "symbol",
      "outputs": [
        {
          "internalType": "string",
          "name": "",
          "type": "string"
        }
      ],
      "stateMutability": "view",
      "type": "function"
    },
    {
      "inputs": [
        {
          "internalType": "uint256",
          "name": "index",
          "type": "uint256"
        }
      ],
      "name": "tokenByIndex",
      "outputs": [
        {
          "internalType": "uint256",
          "name": "",
          "type": "uint256"
        }
      ],
      "stateMutability": "view",
      "type": "function"
    },
    {
      "inputs": [
        {
          "internalType": "address",
          "name": "owner",
          "type": "address"
        },
        {
          "internalType": "uint256",
          "name": "index",
          "type": "uint256"
        }
      ],
      "name": "tokenOfOwnerByIndex",
      "outputs": [
        {
          "internalType": "uint256",
          "name": "",
          "type": "uint256"
        }
      ],
      "stateMutability": "view",
      "type": "function"
    },
    {
      "inputs": [
        {
          "internalType": "uint256",
          "name": "tokenId",
          "type": "uint256"
        }
      ],
      "name": "tokenURI",
      "outputs": [
        {
          "internalType": "string",
          "name": "",
          "type": "string"
        }
      ],
      "stateMutability": "view",
      "type": "function"
    },
    {
      "inputs": [],
      "name": "totalSupply",
      "outputs": [
        {
          "internalType": "uint256",
          "name": "",
          "type": "uint256"
        }
      ],
      "stateMutability": "view",
      "type": "function"
    },
    {
      "inputs": [
        {
          "internalType": "address",
          "name": "from",
          "type": "address"
        },
        {
          "internalType": "address",
          "name": "to",
          "type": "address"
        },
        {
          "internalType": "uint256",
          "name": "tokenId",
          "type": "uint256"
        }
      ],
      "name": "transferFrom",
      "outputs": [],
      "stateMutability": "nonpayable",
      "type": "function"
    },
    {
      "inputs": [
        {
          "internalType": "address",
          "name": "newOwner",
          "type": "address"
        }
      ],
      "name": "transferOwnership",
      "outputs": [],
      "stateMutability": "nonpayable",
      "type": "function"
    }
  ],
  "transactionHash": "0x45af59138d932ed3ff1b3597c5997dcc5df95b69cdeb458beb443101762b4e6d",
  "args": [
    "0x00A4E4C9367A23D86F8C166b982d97015314Aa94",
    "ArtCoin",
    "ART"
  ],
  "numDeployments": 1,
  "solcInputHash": "4f8614cb874f3bc07154d74367dbdb8d",
  "bytecode": "0x60806040523480156200001157600080fd5b506040516200328f3803806200328f8339810160408190526200003491620001b8565b81816000620000448382620002d1565b506001620000538282620002d1565b505050620000706200006a6200009d60201b60201c565b620000a1565b50506001600c55600e80546001600160a01b0319166001600160a01b03929092169190911790556200039d565b3390565b600b80546001600160a01b038381166001600160a01b0319831681179093556040519116919082907f8be0079c531659141344cd1fd0a4f28419497f9722a3daafe3b4186f6b6457e090600090a35050565b634e487b7160e01b600052604160045260246000fd5b600082601f8301126200011b57600080fd5b81516001600160401b0380821115620001385762000138620000f3565b604051601f8301601f19908116603f01168101908282118183101715620001635762000163620000f3565b816040528381526020925086838588010111156200018057600080fd5b600091505b83821015620001a4578582018301518183018401529082019062000185565b600093810190920192909252949350505050565b600080600060608486031215620001ce57600080fd5b83516001600160a01b0381168114620001e657600080fd5b60208501519093506001600160401b03808211156200020457600080fd5b620002128783880162000109565b935060408601519150808211156200022957600080fd5b50620002388682870162000109565b9150509250925092565b600181811c908216806200025757607f821691505b6020821081036200027857634e487b7160e01b600052602260045260246000fd5b50919050565b601f821115620002cc57600081815260208120601f850160051c81016020861015620002a75750805b601f850160051c820191505b81811015620002c857828155600101620002b3565b5050505b505050565b81516001600160401b03811115620002ed57620002ed620000f3565b6200030581620002fe845462000242565b846200027e565b602080601f8311600181146200033d5760008415620003245750858301515b600019600386901b1c1916600185901b178555620002c8565b600085815260208120601f198616915b828110156200036e578886015182559484019460019091019084016200034d565b50858210156200038d5787850151600019600388901b60f8161c191681555b5050505050600190811b01905550565b612ee280620003ad6000396000f3fe608060405234801561001057600080fd5b50600436106101cf5760003560e01c80636352211e11610104578063a49bab54116100a2578063d204c45e11610071578063d204c45e146103da578063e985e9c5146103ed578063f2fde38b14610429578063f676e5ce1461043c57600080fd5b8063a49bab5414610399578063b2733b39146103a1578063b88d4fde146103b4578063c87b56dd146103c757600080fd5b8063715018a6116100de578063715018a6146103655780638da5cb5b1461036d57806395d89b411461037e578063a22cb4651461038657600080fd5b80636352211e1461032c57806364ba144e1461033f57806370a082311461035257600080fd5b80632f745c591161017157806342842e0e1161014b57806342842e0e146102e05780634f6ccce7146102f357806351ed8288146103065780635764b2d21461031957600080fd5b80632f745c591461029a5780633013ce29146102ad5780633d4392c0146102c057600080fd5b8063081812fc116101ad578063081812fc14610235578063095ea7b31461026057806318160ddd1461027557806323b872dd1461028757600080fd5b806301ffc9a7146101d457806302eb4b88146101fc57806306fdde0314610220575b600080fd5b6101e76101e23660046124b7565b61044f565b60405190151581526020015b60405180910390f35b61020f61020a3660046124d4565b610460565b6040516101f395949392919061253d565b610228610526565b6040516101f3919061257e565b6102486102433660046124d4565b6105b8565b6040516001600160a01b0390911681526020016101f3565b61027361026e3660046125ad565b6105df565b005b6008545b6040519081526020016101f3565b6102736102953660046125d7565b6106f9565b6102796102a83660046125ad565b61072a565b600e54610248906001600160a01b031681565b6102d36102ce366004612613565b6107c0565b6040516101f3919061262e565b6102736102ee3660046125d7565b610961565b6102796103013660046124d4565b61097c565b6102736103143660046124d4565b610a0f565b6102736103273660046124d4565b610df9565b61024861033a3660046124d4565b610e93565b61027361034d366004612846565b610ef3565b610279610360366004612613565b610f9f565b610273611025565b600b546001600160a01b0316610248565b610228611039565b610273610394366004612914565b611048565b6102d3611057565b6102736103af36600461294b565b611254565b6102736103c236600461296d565b61133c565b6102286103d53660046124d4565b611374565b6102736103e83660046129e9565b61137f565b6101e76103fb366004612a2d565b6001600160a01b03918216600090815260056020908152604080832093909416825291909152205460ff1690565b610273610437366004612613565b611499565b61027361044a3660046124d4565b61150f565b600061045a826115a1565b92915050565b600f60205260009081526040902080546001820154600283015460038401805493946001600160a01b039093169391929161049a90612a60565b80601f01602080910402602001604051908101604052809291908181526020018280546104c690612a60565b80156105135780601f106104e857610100808354040283529160200191610513565b820191906000526020600020905b8154815290600101906020018083116104f657829003601f168201915b5050506004909301549192505060ff1685565b60606000805461053590612a60565b80601f016020809104026020016040519081016040528092919081815260200182805461056190612a60565b80156105ae5780601f10610583576101008083540402835291602001916105ae565b820191906000526020600020905b81548152906001019060200180831161059157829003601f168201915b5050505050905090565b60006105c3826115c6565b506000908152600460205260409020546001600160a01b031690565b60006105ea82610e93565b9050806001600160a01b0316836001600160a01b03160361065c5760405162461bcd60e51b815260206004820152602160248201527f4552433732313a20617070726f76616c20746f2063757272656e74206f776e656044820152603960f91b60648201526084015b60405180910390fd5b336001600160a01b0382161480610678575061067881336103fb565b6106ea5760405162461bcd60e51b815260206004820152603d60248201527f4552433732313a20617070726f76652063616c6c6572206973206e6f7420746f60448201527f6b656e206f776e6572206f7220617070726f76656420666f7220616c6c0000006064820152608401610653565b6106f48383611625565b505050565b6107033382611693565b61071f5760405162461bcd60e51b815260040161065390612a9a565b6106f4838383611712565b600061073583610f9f565b82106107975760405162461bcd60e51b815260206004820152602b60248201527f455243373231456e756d657261626c653a206f776e657220696e646578206f7560448201526a74206f6620626f756e647360a81b6064820152608401610653565b506001600160a01b03919091166000908152600660209081526040808320938352929052205490565b606060006107cd83610f9f565b905060008167ffffffffffffffff8111156107ea576107ea6126d3565b60405190808252806020026020018201604052801561082357816020015b610810612467565b8152602001906001900390816108085790505b50905060005b8281101561095957600f600061083f878461072a565b81526020808201929092526040908101600020815160a0810183528154815260018201546001600160a01b03169381019390935260028101549183019190915260038101805460608401919061089490612a60565b80601f01602080910402602001604051908101604052809291908181526020018280546108c090612a60565b801561090d5780601f106108e25761010080835404028352916020019161090d565b820191906000526020600020905b8154815290600101906020018083116108f057829003601f168201915b50505091835250506004919091015460ff161515602090910152825183908390811061093b5761093b612ae7565b6020026020010181905250808061095190612b13565b915050610829565b509392505050565b6106f48383836040518060200160405280600081525061133c565b600061098760085490565b82106109ea5760405162461bcd60e51b815260206004820152602c60248201527f455243373231456e756d657261626c653a20676c6f62616c20696e646578206f60448201526b7574206f6620626f756e647360a01b6064820152608401610653565b600882815481106109fd576109fd612ae7565b90600052602060002001549050919050565b610a17611883565b6000818152600f60209081526040808320815160a0810183528154815260018201546001600160a01b031693810193909352600281015491830191909152600381018054606084019190610a6a90612a60565b80601f0160208091040260200160405190810160405280929190818152602001828054610a9690612a60565b8015610ae35780601f10610ab857610100808354040283529160200191610ae3565b820191906000526020600020905b815481529060010190602001808311610ac657829003601f168201915b50505091835250506004919091015460ff1615156020909101526040810151909150610b475760405162461bcd60e51b81526020600482015260136024820152724e4654206973206e6f7420666f722073616c6560681b6044820152606401610653565b8060800151610b8f5760405162461bcd60e51b8152602060048201526014602482015273139195081a5cc81b9bdd08191a5cdc1b185e595960621b6044820152606401610653565b604081810151600e5491516370a0823160e01b815233600482015290916001600160a01b0316906370a0823190602401602060405180830381865afa158015610bdc573d6000803e3d6000fd5b505050506040513d601f19601f82011682018060405250810190610c009190612b2c565b1015610c4e5760405162461bcd60e51b815260206004820152601f60248201527f496e73756666696369656e742062616c616e636520746f20627579204e4654006044820152606401610653565b80602001516001600160a01b0316610c6583610e93565b6001600160a01b031614610cbb5760405162461bcd60e51b815260206004820152601f60248201527f53656c6c6572206973206e6f74207468652063757272656e74206f776e6572006044820152606401610653565b600e54602082015160408084015190516323b872dd60e01b81523360048201526001600160a01b03928316602482015260448101919091529116906323b872dd906064016020604051808303816000875af1158015610d1e573d6000803e3d6000fd5b505050506040513d601f19601f82011682018060405250810190610d429190612b45565b50610d6281602001513384604051806020016040528060008152506118dc565b6000828152600f60209081526040808320600281019390935560048301805460ff191690556001830180546001600160a01b031916339081179091559184015184820151915192936001600160a01b0391909116927f34f996f4966e752d83fd46db641920af7b70e871c60105374d0a741c51b4caf192610de39291612c2a565b60405180910390a350610df66001600c55565b50565b33610e0382610e93565b6001600160a01b031614610e6d5760405162461bcd60e51b815260206004820152602b60248201527f4f6e6c7920746865206f776e65722063616e206c69737420746865204e46542060448201526a666f7220646973706c617960a81b6064820152608401610653565b6000908152600f602052604081206002810191909155600401805460ff19166001179055565b6000818152600260205260408120546001600160a01b03168061045a5760405162461bcd60e51b8152602060048201526018602482015277115490cdcc8c4e881a5b9d985b1a59081d1bdad95b88125160421b6044820152606401610653565b610efb61190f565b8051825114610f455760405162461bcd60e51b8152602060048201526016602482015275082e4e4c2f2e640d8cadccee8d040dad2e6dac2e8c6d60531b6044820152606401610653565b60005b82518110156106f457610f8d838281518110610f6657610f66612ae7565b6020026020010151838381518110610f8057610f80612ae7565b602002602001015161137f565b80610f9781612b13565b915050610f48565b60006001600160a01b0382166110095760405162461bcd60e51b815260206004820152602960248201527f4552433732313a2061646472657373207a65726f206973206e6f7420612076616044820152683634b21037bbb732b960b91b6064820152608401610653565b506001600160a01b031660009081526003602052604090205490565b61102d61190f565b6110376000611969565b565b60606001805461053590612a60565b6110533383836119bb565b5050565b6060600060015b600d5481116110a1576000818152600f602052604090206004015460ff161561108f578161108b81612b13565b9250505b8061109981612b13565b91505061105e565b5060008167ffffffffffffffff8111156110bd576110bd6126d3565b6040519080825280602002602001820160405280156110f657816020015b6110e3612467565b8152602001906001900390816110db5790505b509050600060015b600d54811161124b576000818152600f602052604090206004015460ff1615611239576000818152600f6020908152604091829020825160a0810184528154815260018201546001600160a01b03169281019290925260028101549282019290925260038201805491929160608401919061117890612a60565b80601f01602080910402602001604051908101604052809291908181526020018280546111a490612a60565b80156111f15780601f106111c6576101008083540402835291602001916111f1565b820191906000526020600020905b8154815290600101906020018083116111d457829003601f168201915b50505091835250506004919091015460ff161515602090910152835184908490811061121f5761121f612ae7565b6020026020010181905250818061123590612b13565b9250505b8061124381612b13565b9150506110fe565b50909392505050565b3361125e83610e93565b6001600160a01b0316146112c55760405162461bcd60e51b815260206004820152602860248201527f4f6e6c7920746865206f776e65722063616e206c69737420746865204e465420604482015267666f722073616c6560c01b6064820152608401610653565b600081116113155760405162461bcd60e51b815260206004820152601f60248201527f5072696365206d7573742062652067726561746572207468616e207a65726f006044820152606401610653565b6000918252600f60205260409091206002810191909155600401805460ff19166001179055565b6113463383611693565b6113625760405162461bcd60e51b815260040161065390612a9a565b61136e848484846118dc565b50505050565b606061045a82611a89565b61138d600d80546001019055565b6000611398600d5490565b90506113a48382611b91565b6113ae8183611bab565b6040805160a08101825282815233602080830191825260008385018181526060850188815260808601839052878352600f9093529490208351815591516001830180546001600160a01b0319166001600160a01b0390921691909117905592516002820155915190919060038201906114279082612c9a565b50608091909101516004909101805460ff19169115159190911790556000818152600f60205260409081902090516001600160a01b038516917f5b5ec6f27897d6d3095d32c1f98297e11af61fcf9f5429bab72de3d4a868f8049161148c9190612d5a565b60405180910390a2505050565b6114a161190f565b6001600160a01b0381166115065760405162461bcd60e51b815260206004820152602660248201527f4f776e61626c653a206e6577206f776e657220697320746865207a65726f206160448201526564647265737360d01b6064820152608401610653565b610df681611969565b3361151982610e93565b6001600160a01b0316146115865760405162461bcd60e51b815260206004820152602e60248201527f4f6e6c7920746865206f776e65722063616e2072656d6f766520746865204e4660448201526d542066726f6d20646973706c617960901b6064820152608401610653565b6000908152600f60205260409020600401805460ff19169055565b60006001600160e01b03198216632483248360e11b148061045a575061045a82611c76565b6000818152600260205260409020546001600160a01b0316610df65760405162461bcd60e51b8152602060048201526018602482015277115490cdcc8c4e881a5b9d985b1a59081d1bdad95b88125160421b6044820152606401610653565b600081815260046020526040902080546001600160a01b0319166001600160a01b038416908117909155819061165a82610e93565b6001600160a01b03167f8c5be1e5ebec7d5bd14f71427d1e84f3dd0314c0f7b2291e5b200ac8c7c3b92560405160405180910390a45050565b60008061169f83610e93565b9050806001600160a01b0316846001600160a01b031614806116e657506001600160a01b0380821660009081526005602090815260408083209388168352929052205460ff165b8061170a5750836001600160a01b03166116ff846105b8565b6001600160a01b0316145b949350505050565b826001600160a01b031661172582610e93565b6001600160a01b03161461174b5760405162461bcd60e51b815260040161065390612d6d565b6001600160a01b0382166117ad5760405162461bcd60e51b8152602060048201526024808201527f4552433732313a207472616e7366657220746f20746865207a65726f206164646044820152637265737360e01b6064820152608401610653565b6117ba8383836001611c9b565b826001600160a01b03166117cd82610e93565b6001600160a01b0316146117f35760405162461bcd60e51b815260040161065390612d6d565b600081815260046020908152604080832080546001600160a01b03199081169091556001600160a01b0387811680865260038552838620805460001901905590871680865283862080546001019055868652600290945282852080549092168417909155905184937fddf252ad1be2c89b69c2b068fc378daa952ba7f163c4a11628f55a4df523b3ef91a4505050565b6002600c54036118d55760405162461bcd60e51b815260206004820152601f60248201527f5265656e7472616e637947756172643a207265656e7472616e742063616c6c006044820152606401610653565b6002600c55565b6118e7848484611712565b6118f384848484611ca7565b61136e5760405162461bcd60e51b815260040161065390612db2565b600b546001600160a01b031633146110375760405162461bcd60e51b815260206004820181905260248201527f4f776e61626c653a2063616c6c6572206973206e6f7420746865206f776e65726044820152606401610653565b600b80546001600160a01b038381166001600160a01b0319831681179093556040519116919082907f8be0079c531659141344cd1fd0a4f28419497f9722a3daafe3b4186f6b6457e090600090a35050565b816001600160a01b0316836001600160a01b031603611a1c5760405162461bcd60e51b815260206004820152601960248201527f4552433732313a20617070726f766520746f2063616c6c6572000000000000006044820152606401610653565b6001600160a01b03838116600081815260056020908152604080832094871680845294825291829020805460ff191686151590811790915591519182527f17307eab39ab6107e8899845ad3d59bd9653f200f220920489ca2b5937696c31910160405180910390a3505050565b6060611a94826115c6565b6000828152600a602052604081208054611aad90612a60565b80601f0160208091040260200160405190810160405280929190818152602001828054611ad990612a60565b8015611b265780601f10611afb57610100808354040283529160200191611b26565b820191906000526020600020905b815481529060010190602001808311611b0957829003601f168201915b505050505090506000611b4460408051602081019091526000815290565b90508051600003611b56575092915050565b815115611b88578082604051602001611b70929190612e04565b60405160208183030381529060405292505050919050565b61170a84611da8565b611053828260405180602001604052806000815250611e1c565b6000828152600260205260409020546001600160a01b0316611c265760405162461bcd60e51b815260206004820152602e60248201527f45524337323155524953746f726167653a2055524920736574206f66206e6f6e60448201526d32bc34b9ba32b73a103a37b5b2b760911b6064820152608401610653565b6000828152600a60205260409020611c3e8282612c9a565b506040518281527ff8e1a15aba9398e019f0b49df1a4fde98ee17ae345cb5f6b5e2c27f5033e8ce79060200160405180910390a15050565b60006001600160e01b0319821663780e9d6360e01b148061045a575061045a82611e4f565b61136e84848484611e9f565b60006001600160a01b0384163b15611d9d57604051630a85bd0160e11b81526001600160a01b0385169063150b7a0290611ceb903390899088908890600401612e33565b6020604051808303816000875af1925050508015611d26575060408051601f3d908101601f19168201909252611d2391810190612e66565b60015b611d83573d808015611d54576040519150601f19603f3d011682016040523d82523d6000602084013e611d59565b606091505b508051600003611d7b5760405162461bcd60e51b815260040161065390612db2565b805181602001fd5b6001600160e01b031916630a85bd0160e11b14905061170a565b506001949350505050565b6060611db3826115c6565b6000611dca60408051602081019091526000815290565b90506000815111611dea5760405180602001604052806000815250611e15565b80611df484611fd3565b604051602001611e05929190612e04565b6040516020818303038152906040525b9392505050565b611e268383612066565b611e336000848484611ca7565b6106f45760405162461bcd60e51b815260040161065390612db2565b60006001600160e01b031982166380ac58cd60e01b1480611e8057506001600160e01b03198216635b5e139f60e01b145b8061045a57506301ffc9a760e01b6001600160e01b031983161461045a565b6001811115611f0e5760405162461bcd60e51b815260206004820152603560248201527f455243373231456e756d657261626c653a20636f6e7365637574697665207472604482015274185b9cd9995c9cc81b9bdd081cdd5c1c1bdc9d1959605a1b6064820152608401610653565b816001600160a01b038516611f6a57611f6581600880546000838152600960205260408120829055600182018355919091527ff3f7a9fe364faab93b216da50a3214154f22a0a2b415b23a84c8169e8b636ee30155565b611f8d565b836001600160a01b0316856001600160a01b031614611f8d57611f8d85826121ff565b6001600160a01b038416611fa957611fa48161229c565b611fcc565b846001600160a01b0316846001600160a01b031614611fcc57611fcc848261234b565b5050505050565b60606000611fe08361238f565b600101905060008167ffffffffffffffff811115612000576120006126d3565b6040519080825280601f01601f19166020018201604052801561202a576020820181803683370190505b5090508181016020015b600019016f181899199a1a9b1b9c1cb0b131b232b360811b600a86061a8153600a850494508461203457509392505050565b6001600160a01b0382166120bc5760405162461bcd60e51b815260206004820181905260248201527f4552433732313a206d696e7420746f20746865207a65726f20616464726573736044820152606401610653565b6000818152600260205260409020546001600160a01b0316156121215760405162461bcd60e51b815260206004820152601c60248201527f4552433732313a20746f6b656e20616c7265616479206d696e746564000000006044820152606401610653565b61212f600083836001611c9b565b6000818152600260205260409020546001600160a01b0316156121945760405162461bcd60e51b815260206004820152601c60248201527f4552433732313a20746f6b656e20616c7265616479206d696e746564000000006044820152606401610653565b6001600160a01b038216600081815260036020908152604080832080546001019055848352600290915280822080546001600160a01b0319168417905551839291907fddf252ad1be2c89b69c2b068fc378daa952ba7f163c4a11628f55a4df523b3ef908290a45050565b6000600161220c84610f9f565b6122169190612e83565b600083815260076020526040902054909150808214612269576001600160a01b03841660009081526006602090815260408083208584528252808320548484528184208190558352600790915290208190555b5060009182526007602090815260408084208490556001600160a01b039094168352600681528383209183525290812055565b6008546000906122ae90600190612e83565b600083815260096020526040812054600880549394509092849081106122d6576122d6612ae7565b9060005260206000200154905080600883815481106122f7576122f7612ae7565b600091825260208083209091019290925582815260099091526040808220849055858252812055600880548061232f5761232f612e96565b6001900381819060005260206000200160009055905550505050565b600061235683610f9f565b6001600160a01b039093166000908152600660209081526040808320868452825280832085905593825260079052919091209190915550565b60008072184f03e93ff9f4daa797ed6e38ed64bf6a1f0160401b83106123ce5772184f03e93ff9f4daa797ed6e38ed64bf6a1f0160401b830492506040015b6d04ee2d6d415b85acef810000000083106123fa576d04ee2d6d415b85acef8100000000830492506020015b662386f26fc10000831061241857662386f26fc10000830492506010015b6305f5e1008310612430576305f5e100830492506008015b612710831061244457612710830492506004015b60648310612456576064830492506002015b600a831061045a5760010192915050565b6040518060a001604052806000815260200160006001600160a01b0316815260200160008152602001606081526020016000151581525090565b6001600160e01b031981168114610df657600080fd5b6000602082840312156124c957600080fd5b8135611e15816124a1565b6000602082840312156124e657600080fd5b5035919050565b60005b838110156125085781810151838201526020016124f0565b50506000910152565b600081518084526125298160208601602086016124ed565b601f01601f19169290920160200192915050565b85815260018060a01b038516602082015283604082015260a06060820152600061256a60a0830185612511565b905082151560808301529695505050505050565b602081526000611e156020830184612511565b80356001600160a01b03811681146125a857600080fd5b919050565b600080604083850312156125c057600080fd5b6125c983612591565b946020939093013593505050565b6000806000606084860312156125ec57600080fd5b6125f584612591565b925061260360208501612591565b9150604084013590509250925092565b60006020828403121561262557600080fd5b611e1582612591565b60006020808301818452808551808352604092508286019150828160051b87010184880160005b838110156126c557888303603f19018552815180518452878101516001600160a01b031688850152868101518785015260608082015160a082870181905291906126a183880182612511565b60809485015115159790940196909652505094870194925090860190600101612655565b509098975050505050505050565b634e487b7160e01b600052604160045260246000fd5b604051601f8201601f1916810167ffffffffffffffff81118282101715612712576127126126d3565b604052919050565b600067ffffffffffffffff821115612734576127346126d3565b5060051b60200190565b600067ffffffffffffffff831115612758576127586126d3565b61276b601f8401601f19166020016126e9565b905082815283838301111561277f57600080fd5b828260208301376000602084830101529392505050565b600082601f8301126127a757600080fd5b611e158383356020850161273e565b600082601f8301126127c757600080fd5b813560206127dc6127d78361271a565b6126e9565b82815260059290921b840181019181810190868411156127fb57600080fd5b8286015b8481101561283b57803567ffffffffffffffff81111561281f5760008081fd5b61282d8986838b0101612796565b8452509183019183016127ff565b509695505050505050565b6000806040838503121561285957600080fd5b823567ffffffffffffffff8082111561287157600080fd5b818501915085601f83011261288557600080fd5b813560206128956127d78361271a565b82815260059290921b840181019181810190898411156128b457600080fd5b948201945b838610156128d9576128ca86612591565b825294820194908201906128b9565b965050860135925050808211156128ef57600080fd5b506128fc858286016127b6565b9150509250929050565b8015158114610df657600080fd5b6000806040838503121561292757600080fd5b61293083612591565b9150602083013561294081612906565b809150509250929050565b6000806040838503121561295e57600080fd5b50508035926020909101359150565b6000806000806080858703121561298357600080fd5b61298c85612591565b935061299a60208601612591565b925060408501359150606085013567ffffffffffffffff8111156129bd57600080fd5b8501601f810187136129ce57600080fd5b6129dd8782356020840161273e565b91505092959194509250565b600080604083850312156129fc57600080fd5b612a0583612591565b9150602083013567ffffffffffffffff811115612a2157600080fd5b6128fc85828601612796565b60008060408385031215612a4057600080fd5b612a4983612591565b9150612a5760208401612591565b90509250929050565b600181811c90821680612a7457607f821691505b602082108103612a9457634e487b7160e01b600052602260045260246000fd5b50919050565b6020808252602d908201527f4552433732313a2063616c6c6572206973206e6f7420746f6b656e206f776e6560408201526c1c881bdc88185c1c1c9bdd9959609a1b606082015260800190565b634e487b7160e01b600052603260045260246000fd5b634e487b7160e01b600052601160045260246000fd5b600060018201612b2557612b25612afd565b5060010190565b600060208284031215612b3e57600080fd5b5051919050565b600060208284031215612b5757600080fd5b8151611e1581612906565b805482526000600180600160a01b038184015416602081818701526002850154604087015260038501915060a0606087015260008254612ba181612a60565b8060a08a015260c086831660008114612bc15760018114612bdb57612c09565b60ff1984168b83015282151560051b8b0182019450612c09565b866000528560002060005b84811015612c015781548d8201850152908901908701612be6565b8c0183019550505b50505050600486015460ff16801515608089015293505b9695505050505050565b604081526000612c3d6040830185612b62565b90508260208301529392505050565b601f8211156106f457600081815260208120601f850160051c81016020861015612c735750805b601f850160051c820191505b81811015612c9257828155600101612c7f565b505050505050565b815167ffffffffffffffff811115612cb457612cb46126d3565b612cc881612cc28454612a60565b84612c4c565b602080601f831160018114612cfd5760008415612ce55750858301515b600019600386901b1c1916600185901b178555612c92565b600085815260208120601f198616915b82811015612d2c57888601518255948401946001909101908401612d0d565b5085821015612d4a5787850151600019600388901b60f8161c191681555b5050505050600190811b01905550565b602081526000611e156020830184612b62565b60208082526025908201527f4552433732313a207472616e736665722066726f6d20696e636f72726563742060408201526437bbb732b960d91b606082015260800190565b60208082526032908201527f4552433732313a207472616e7366657220746f206e6f6e20455243373231526560408201527131b2b4bb32b91034b6b83632b6b2b73a32b960711b606082015260800190565b60008351612e168184602088016124ed565b835190830190612e2a8183602088016124ed565b01949350505050565b6001600160a01b0385811682528416602082015260408101839052608060608201819052600090612c2090830184612511565b600060208284031215612e7857600080fd5b8151611e15816124a1565b8181038181111561045a5761045a612afd565b634e487b7160e01b600052603160045260246000fdfea2646970667358221220ea66307831c0158bd255327241a65003d03a91d265fa224c4b5f7e970ca4570b64736f6c63430008140033",
  "devdoc": {
    "events": {
      "Approval(address,address,uint256)": {
        "details": "Emitted when `owner` enables `approved` to manage the `tokenId` token."
      },
      "ApprovalForAll(address,address,bool)": {
        "details": "Emitted when `owner` enables or disables (`approved`) `operator` to manage all of its assets."
      },
      "BatchMetadataUpdate(uint256,uint256)": {
        "details": "This event emits when the metadata of a range of tokens is changed. So that the third-party platforms such as NFT market could timely update the images and related attributes of the NFTs."
      },
      "MetadataUpdate(uint256)": {
        "details": "This event emits when the metadata of a token is changed. So that the third-party platforms such as NFT market could timely update the images and related attributes of the NFT."
      },
      "Transfer(address,address,uint256)": {
        "details": "Emitted when `tokenId` token is transferred from `from` to `to`."
      }
    },
    "kind": "dev",
    "methods": {
      "approve(address,uint256)": {
        "details": "See {IERC721-approve}."
      },
      "balanceOf(address)": {
        "details": "See {IERC721-balanceOf}."
      },
      "getApproved(uint256)": {
        "details": "See {IERC721-getApproved}."
      },
      "isApprovedForAll(address,address)": {
        "details": "See {IERC721-isApprovedForAll}."
      },
      "name()": {
        "details": "See {IERC721Metadata-name}."
      },
      "owner()": {
        "details": "Returns the address of the current owner."
      },
      "ownerOf(uint256)": {
        "details": "See {IERC721-ownerOf}."
      },
      "renounceOwnership()": {
        "details": "Leaves the contract without owner. It will not be possible to call `onlyOwner` functions. Can only be called by the current owner. NOTE: Renouncing ownership will leave the contract without an owner, thereby disabling any functionality that is only available to the owner."
      },
      "safeTransferFrom(address,address,uint256)": {
        "details": "See {IERC721-safeTransferFrom}."
      },
      "safeTransferFrom(address,address,uint256,bytes)": {
        "details": "See {IERC721-safeTransferFrom}."
      },
      "setApprovalForAll(address,bool)": {
        "details": "See {IERC721-setApprovalForAll}."
      },
      "symbol()": {
        "details": "See {IERC721Metadata-symbol}."
      },
      "tokenByIndex(uint256)": {
        "details": "See {IERC721Enumerable-tokenByIndex}."
      },
      "tokenOfOwnerByIndex(address,uint256)": {
        "details": "See {IERC721Enumerable-tokenOfOwnerByIndex}."
      },
      "totalSupply()": {
        "details": "See {IERC721Enumerable-totalSupply}."
      },
      "transferFrom(address,address,uint256)": {
        "details": "See {IERC721-transferFrom}."
      },
      "transferOwnership(address)": {
        "details": "Transfers ownership of the contract to a new account (`newOwner`). Can only be called by the current owner."
      }
    },
    "version": 1
  },
  "userdoc": {
    "kind": "user",
    "methods": {},
    "version": 1
  },
  "storageLayout": {
    "storage": [
      {
        "astId": 1154,
        "contract": "contracts/MyERC721.sol:MyERC721",
        "label": "_name",
        "offset": 0,
        "slot": "0",
        "type": "t_string_storage"
      },
      {
        "astId": 1156,
        "contract": "contracts/MyERC721.sol:MyERC721",
        "label": "_symbol",
        "offset": 0,
        "slot": "1",
        "type": "t_string_storage"
      },
      {
        "astId": 1160,
        "contract": "contracts/MyERC721.sol:MyERC721",
        "label": "_owners",
        "offset": 0,
        "slot": "2",
        "type": "t_mapping(t_uint256,t_address)"
      },
      {
        "astId": 1164,
        "contract": "contracts/MyERC721.sol:MyERC721",
        "label": "_balances",
        "offset": 0,
        "slot": "3",
        "type": "t_mapping(t_address,t_uint256)"
      },
      {
        "astId": 1168,
        "contract": "contracts/MyERC721.sol:MyERC721",
        "label": "_tokenApprovals",
        "offset": 0,
        "slot": "4",
        "type": "t_mapping(t_uint256,t_address)"
      },
      {
        "astId": 1174,
        "contract": "contracts/MyERC721.sol:MyERC721",
        "label": "_operatorApprovals",
        "offset": 0,
        "slot": "5",
        "type": "t_mapping(t_address,t_mapping(t_address,t_bool))"
      },
      {
        "astId": 2204,
        "contract": "contracts/MyERC721.sol:MyERC721",
        "label": "_ownedTokens",
        "offset": 0,
        "slot": "6",
        "type": "t_mapping(t_address,t_mapping(t_uint256,t_uint256))"
      },
      {
        "astId": 2208,
        "contract": "contracts/MyERC721.sol:MyERC721",
        "label": "_ownedTokensIndex",
        "offset": 0,
        "slot": "7",
        "type": "t_mapping(t_uint256,t_uint256)"
      },
      {
        "astId": 2211,
        "contract": "contracts/MyERC721.sol:MyERC721",
        "label": "_allTokens",
        "offset": 0,
        "slot": "8",
        "type": "t_array(t_uint256)dyn_storage"
      },
      {
        "astId": 2215,
        "contract": "contracts/MyERC721.sol:MyERC721",
        "label": "_allTokensIndex",
        "offset": 0,
        "slot": "9",
        "type": "t_mapping(t_uint256,t_uint256)"
      },
      {
        "astId": 2559,
        "contract": "contracts/MyERC721.sol:MyERC721",
        "label": "_tokenURIs",
        "offset": 0,
        "slot": "10",
        "type": "t_mapping(t_uint256,t_string_storage)"
      },
      {
        "astId": 7,
        "contract": "contracts/MyERC721.sol:MyERC721",
        "label": "_owner",
        "offset": 0,
        "slot": "11",
        "type": "t_address"
      },
      {
        "astId": 176,
        "contract": "contracts/MyERC721.sol:MyERC721",
        "label": "_status",
        "offset": 0,
        "slot": "12",
        "type": "t_uint256"
      },
      {
        "astId": 5419,
        "contract": "contracts/MyERC721.sol:MyERC721",
        "label": "_tokenIds",
        "offset": 0,
        "slot": "13",
        "type": "t_struct(Counter)3115_storage"
      },
      {
        "astId": 5433,
        "contract": "contracts/MyERC721.sol:MyERC721",
        "label": "paymentToken",
        "offset": 0,
        "slot": "14",
        "type": "t_contract(MyERC20)5393"
      },
      {
        "astId": 5438,
        "contract": "contracts/MyERC721.sol:MyERC721",
        "label": "saleInfo",
        "offset": 0,
        "slot": "15",
        "type": "t_mapping(t_uint256,t_struct(SaleInfo)5430_storage)"
      }
    ],
    "types": {
      "t_address": {
        "encoding": "inplace",
        "label": "address",
        "numberOfBytes": "20"
      },
      "t_array(t_uint256)dyn_storage": {
        "base": "t_uint256",
        "encoding": "dynamic_array",
        "label": "uint256[]",
        "numberOfBytes": "32"
      },
      "t_bool": {
        "encoding": "inplace",
        "label": "bool",
        "numberOfBytes": "1"
      },
      "t_contract(MyERC20)5393": {
        "encoding": "inplace",
        "label": "contract MyERC20",
        "numberOfBytes": "20"
      },
      "t_mapping(t_address,t_bool)": {
        "encoding": "mapping",
        "key": "t_address",
        "label": "mapping(address => bool)",
        "numberOfBytes": "32",
        "value": "t_bool"
      },
      "t_mapping(t_address,t_mapping(t_address,t_bool))": {
        "encoding": "mapping",
        "key": "t_address",
        "label": "mapping(address => mapping(address => bool))",
        "numberOfBytes": "32",
        "value": "t_mapping(t_address,t_bool)"
      },
      "t_mapping(t_address,t_mapping(t_uint256,t_uint256))": {
        "encoding": "mapping",
        "key": "t_address",
        "label": "mapping(address => mapping(uint256 => uint256))",
        "numberOfBytes": "32",
        "value": "t_mapping(t_uint256,t_uint256)"
      },
      "t_mapping(t_address,t_uint256)": {
        "encoding": "mapping",
        "key": "t_address",
        "label": "mapping(address => uint256)",
        "numberOfBytes": "32",
        "value": "t_uint256"
      },
      "t_mapping(t_uint256,t_address)": {
        "encoding": "mapping",
        "key": "t_uint256",
        "label": "mapping(uint256 => address)",
        "numberOfBytes": "32",
        "value": "t_address"
      },
      "t_mapping(t_uint256,t_string_storage)": {
        "encoding": "mapping",
        "key": "t_uint256",
        "label": "mapping(uint256 => string)",
        "numberOfBytes": "32",
        "value": "t_string_storage"
      },
      "t_mapping(t_uint256,t_struct(SaleInfo)5430_storage)": {
        "encoding": "mapping",
        "key": "t_uint256",
        "label": "mapping(uint256 => struct MyERC721.SaleInfo)",
        "numberOfBytes": "32",
        "value": "t_struct(SaleInfo)5430_storage"
      },
      "t_mapping(t_uint256,t_uint256)": {
        "encoding": "mapping",
        "key": "t_uint256",
        "label": "mapping(uint256 => uint256)",
        "numberOfBytes": "32",
        "value": "t_uint256"
      },
      "t_string_storage": {
        "encoding": "bytes",
        "label": "string",
        "numberOfBytes": "32"
      },
      "t_struct(Counter)3115_storage": {
        "encoding": "inplace",
        "label": "struct Counters.Counter",
        "members": [
          {
            "astId": 3114,
            "contract": "contracts/MyERC721.sol:MyERC721",
            "label": "_value",
            "offset": 0,
            "slot": "0",
            "type": "t_uint256"
          }
        ],
        "numberOfBytes": "32"
      },
      "t_struct(SaleInfo)5430_storage": {
        "encoding": "inplace",
        "label": "struct MyERC721.SaleInfo",
        "members": [
          {
            "astId": 5421,
            "contract": "contracts/MyERC721.sol:MyERC721",
            "label": "tokenId",
            "offset": 0,
            "slot": "0",
            "type": "t_uint256"
          },
          {
            "astId": 5423,
            "contract": "contracts/MyERC721.sol:MyERC721",
            "label": "seller",
            "offset": 0,
            "slot": "1",
            "type": "t_address"
          },
          {
            "astId": 5425,
            "contract": "contracts/MyERC721.sol:MyERC721",
            "label": "price",
            "offset": 0,
            "slot": "2",
            "type": "t_uint256"
          },
          {
            "astId": 5427,
            "contract": "contracts/MyERC721.sol:MyERC721",
            "label": "uri",
            "offset": 0,
            "slot": "3",
            "type": "t_string_storage"
          },
          {
            "astId": 5429,
            "contract": "contracts/MyERC721.sol:MyERC721",
            "label": "display",
            "offset": 0,
            "slot": "4",
            "type": "t_bool"
          }
        ],
        "numberOfBytes": "160"
      },
      "t_uint256": {
        "encoding": "inplace",
        "label": "uint256",
        "numberOfBytes": "32"
      }
    }
  }
}